S00E0000446F646765722E73726563C1
S113000045C0000060C000005EC000005CC000008D
S11300105AC0000058C0000056C0000054C0000080
S113002052C0000050C000004EC000004CC0000090
S11300304AC0000048C0000099C1000044C000004C
S113004042C0000040C000003EC000003CC00000B0
S11300503AC0000038C0000036C0000034C00000C0
S113006032C0000030C000002EC000002CC00000D0
S11300702AC0000028C0000026C0000024C00000E0
S113008022C0000020C000001EC0000011241FBEBA
S1130090CFEFD0E1DEBFCDBF11E0A0E0B1E0E4E4FA
S11300A0F6E000E00BBF02C007900D92AA30B10742
S11300B0D9F721E0AAE0B1E001C01D92A531B20751
S11300C0E1F792D1BDC29CCF181619066CF420E05A
S11300D030E0EFECF7E03197F1F700C000002F5F5C
S11300E03F4F28173907A9F708958FEF87BBBB98AF
S11300F0C09A82E58DB908958FB9779BFECF089594
S113010098B321E030E002C0220F331F8A95E2F752
S11301102095292328BB089598B321E030E002C03C
S1130120220F331F8A95E2F7292B28BB089580E01C
S1130130E7DF89E0E1DF8FEFDFDF80E0EDDF80E004
S1130140DFDF8AE0D9DF8FE0D7DF80E0E5DF80E022
S1130150D7DF8BE0D1DF83E0CFDF80E0DDDF80E03D
S1130160CFDF8CE0C9DF81E0C7DF80E0D5CF089521
S1130170CF93C1E080E0C4DF8C2FBEDF80E0BCDF22
S113018080E0CADF84E690E09FDFCF5FC53091F75F
S1130190CF9108950F931F93CF93DF939C018A30DF
S11301A091056CF4E0910A01F0910B011182108227
S11301B013821282158214829783868354C08436F4
S11301C0910584F4E0910A01F0910B0111821082EF
S11301D0138212826AE070E05AD175836483978334
S11301E0868341C0283E83E03807E4F4E0910A01A5
S11301F0F0910B011182108204E610E0C901B801EC
S113020046D1EC0173836283B80141D12AE030E026
S1130210B9013DD175836483CE01B90138D1978387
S1130220868321C0E0910A01F0910B01C90168EEB7
S113023073E02DD171836083C4E6D0E0BE0127D181
S113024073836283C901BE0122D18C01BE011FD117
S11302502AE030E0B9011BD175836483C801B90178
S113026016D197838683DF91CF911F910F910895C3
S11302700F931F93CF9306E010E0C1E080E040DFCE
S11302808C2F3ADFE0910A01F0910B01E00FF11F8E
S1130290808132DF80E040DFCF5F02501109C5303A
S11302A069F7CF911F910F91089581E087BB1DDFFE
S11302B03EDF88EE93E008CF08950895CF93DF934F
S11302C054D165E070E0E3D0181619067CF44DD1E2
S11302D083709078992324F401978C6F9F6F019613
S11302E0FC01E05FFE4F80818860808380910E0175
S11302F090910F01019690930F0180930E017091DC
S11303000C0160910D01E0E1F1E0A4E0B1E045E110
S113031051E0D1E0C0E08081887F880F990B808311
S11303202D91322F382319F4822B808302C07D2F24
S11303306C2F3196E417F50771F770930C016093F5
S11303400D01E0E1F1E08081876080838BBB8181D6
S11303508760818388BB82818760828385BB838138
S11303608760838382BBDF91CF9108951F920F92A0
S11303700FB60F9211240BB60F922F933F934F9306
S11303805F936F937F938F939F93AF93BF93EF93F9
S1130390FF9384E690E09DBD8CBD80910C0190910B
S11303A00D01892B09F48ADFFF91EF91BF91AF9181
S11303B09F918F917F916F915F914F913F912F9179
S11303C00F900BBE0F900FBE0F901F901895109AB0
S11303D087B7846087BF789484E690E09DBD8CBD28
S11303E08EB583608EBD089560DFC2DE66DF8FEF59
S11303F081BB8ABB87BB84BB10926400E8DF00E04A
S113040010E0E12CF12C0F2EF3E6CF2ED12CF02DA1
S1130410812C912CC4E0D1E0AA24A394B12C809126
S11304200E0190910F01B6DE23DFF601208124FD39
S113043011C0E114F10481F48881998198839A812F
S113044099839B819A838B8388EC90E03DDEEA2C30
S1130450FB2C02C0E82CF92CF601208122FD11C0EE
S11304600115110581F48B819A819B8399819A836B
S113047098819983888388EC90E026DE0A2D1B2DD1
S113048002C0082D192D8A2D9B2D1EDEC8CF97FB87
S1130490072E16F4009406D077FD08D00BD007FC85
S11304A005D03EF4909581959F4F08957095619580
S11304B07F4F0895AA1BBB1B51E107C0AA1FBB1F96
S11304C0A617B70710F0A61BB70B881F991F5A95DC
S11304D0A9F780959095BC01CD0108958F929F92C4
S11304E0AF92BF92CF92DF92EF92FF92CF93DF93BE
S11304F0EC01688179818A819B816115710581058F
S1130500910521F464E279ED8BE597E02DE133EF79
S113051041E050E038D049015A019B01AC01A7EAFF
S1130520B1E44DD06B017C01ACEEB4EFA5019401B4
S113053052D0DC01CB018C0D9D1DAE1DBF1DB7FF3C
S113054003C00197A109B04888839983AA83BB8318
S11305509F77DF91CF91FF90EF90DF90CF90BF9086
S1130560AF909F908F900895B9CF80E091E0B6CF7F
S1130570A0E0B0E08093000190930101A0930201F8
S1130580B09303010895052E97FB16F400940FD041
S113059057FD05D024D007FC02D046F408C050957E
S11305A04095309521953F4F4F4F5F4F089590955B
S11305B08095709561957F4F8F4F9F4F089531D0EF
S11305C0A59F900DB49F900DA49F800D911D1124A3
S11305D00895B7FFF4CFF3DF821B930B0895A1E2D4
S11305E01A2EAA1BBB1BFD010DC0AA1FBB1FEE1FA9
S11305F0FF1FA217B307E407F50720F0A21BB30BF4
S1130600E40BF50B661F771F881F991F1A9469F76F
S113061060957095809590959B01AC01BD01CF01CB
S11306200895A29FB001B39FC001A39F700D811DC7
S11306301124911DB29F700D811D1124911D0895E7
S1070640F894FFCF58
S10D06440100000080000000000027
S9030000FC
